{
  "_format": "hh3-artifact-1",
  "contractName": "BitroveEscrow",
  "sourceName": "contracts/BitroveEscrow.sol",
  "abi": [
    {
      "inputs": [
        {
          "internalType": "uint256",
          "name": "_feePercent",
          "type": "uint256"
        }
      ],
      "stateMutability": "nonpayable",
      "type": "constructor"
    },
    {
      "anonymous": false,
      "inputs": [
        {
          "indexed": false,
          "internalType": "address",
          "name": "token",
          "type": "address"
        }
      ],
      "name": "TokenAdded",
      "type": "event"
    },
    {
      "anonymous": false,
      "inputs": [
        {
          "indexed": false,
          "internalType": "address",
          "name": "token",
          "type": "address"
        }
      ],
      "name": "TokenRemoved",
      "type": "event"
    },
    {
      "anonymous": false,
      "inputs": [
        {
          "indexed": true,
          "internalType": "bytes32",
          "name": "tradeId",
          "type": "bytes32"
        }
      ],
      "name": "TradeComplete",
      "type": "event"
    },
    {
      "anonymous": false,
      "inputs": [
        {
          "indexed": true,
          "internalType": "bytes32",
          "name": "tradeId",
          "type": "bytes32"
        }
      ],
      "name": "TradeDisputed",
      "type": "event"
    },
    {
      "anonymous": false,
      "inputs": [
        {
          "indexed": true,
          "internalType": "bytes32",
          "name": "tradeId",
          "type": "bytes32"
        },
        {
          "indexed": false,
          "internalType": "address",
          "name": "buyer",
          "type": "address"
        },
        {
          "indexed": false,
          "internalType": "address",
          "name": "seller",
          "type": "address"
        },
        {
          "indexed": false,
          "internalType": "address",
          "name": "token",
          "type": "address"
        },
        {
          "indexed": false,
          "internalType": "uint256",
          "name": "amount",
          "type": "uint256"
        }
      ],
      "name": "TradeFunded",
      "type": "event"
    },
    {
      "anonymous": false,
      "inputs": [
        {
          "indexed": true,
          "internalType": "bytes32",
          "name": "tradeId",
          "type": "bytes32"
        }
      ],
      "name": "TradeRefunded",
      "type": "event"
    },
    {
      "inputs": [
        {
          "internalType": "address",
          "name": "token",
          "type": "address"
        }
      ],
      "name": "addToken",
      "outputs": [],
      "stateMutability": "nonpayable",
      "type": "function"
    },
    {
      "inputs": [
        {
          "internalType": "bytes32",
          "name": "tradeId",
          "type": "bytes32"
        }
      ],
      "name": "autoRelease",
      "outputs": [],
      "stateMutability": "nonpayable",
      "type": "function"
    },
    {
      "inputs": [],
      "name": "bitrove",
      "outputs": [
        {
          "internalType": "address",
          "name": "",
          "type": "address"
        }
      ],
      "stateMutability": "view",
      "type": "function"
    },
    {
      "inputs": [
        {
          "internalType": "bytes32",
          "name": "tradeId",
          "type": "bytes32"
        }
      ],
      "name": "confirmReceipt",
      "outputs": [],
      "stateMutability": "nonpayable",
      "type": "function"
    },
    {
      "inputs": [],
      "name": "feePercent",
      "outputs": [
        {
          "internalType": "uint256",
          "name": "",
          "type": "uint256"
        }
      ],
      "stateMutability": "view",
      "type": "function"
    },
    {
      "inputs": [
        {
          "internalType": "bytes32",
          "name": "tradeId",
          "type": "bytes32"
        },
        {
          "internalType": "address",
          "name": "seller",
          "type": "address"
        },
        {
          "internalType": "address",
          "name": "token",
          "type": "address"
        },
        {
          "internalType": "uint256",
          "name": "amount",
          "type": "uint256"
        }
      ],
      "name": "fundTrade",
      "outputs": [],
      "stateMutability": "nonpayable",
      "type": "function"
    },
    {
      "inputs": [],
      "name": "getSupportedTokens",
      "outputs": [
        {
          "internalType": "address[]",
          "name": "",
          "type": "address[]"
        }
      ],
      "stateMutability": "view",
      "type": "function"
    },
    {
      "inputs": [
        {
          "internalType": "bytes32",
          "name": "tradeId",
          "type": "bytes32"
        }
      ],
      "name": "raiseDispute",
      "outputs": [],
      "stateMutability": "nonpayable",
      "type": "function"
    },
    {
      "inputs": [
        {
          "internalType": "address",
          "name": "token",
          "type": "address"
        }
      ],
      "name": "removeToken",
      "outputs": [],
      "stateMutability": "nonpayable",
      "type": "function"
    },
    {
      "inputs": [
        {
          "internalType": "bytes32",
          "name": "tradeId",
          "type": "bytes32"
        },
        {
          "internalType": "bool",
          "name": "favourBuyer",
          "type": "bool"
        }
      ],
      "name": "resolveDispute",
      "outputs": [],
      "stateMutability": "nonpayable",
      "type": "function"
    },
    {
      "inputs": [
        {
          "internalType": "address",
          "name": "",
          "type": "address"
        }
      ],
      "name": "supportedTokens",
      "outputs": [
        {
          "internalType": "bool",
          "name": "",
          "type": "bool"
        }
      ],
      "stateMutability": "view",
      "type": "function"
    },
    {
      "inputs": [
        {
          "internalType": "uint256",
          "name": "",
          "type": "uint256"
        }
      ],
      "name": "tokenList",
      "outputs": [
        {
          "internalType": "address",
          "name": "",
          "type": "address"
        }
      ],
      "stateMutability": "view",
      "type": "function"
    },
    {
      "inputs": [
        {
          "internalType": "bytes32",
          "name": "",
          "type": "bytes32"
        }
      ],
      "name": "trades",
      "outputs": [
        {
          "internalType": "address",
          "name": "buyer",
          "type": "address"
        },
        {
          "internalType": "address",
          "name": "seller",
          "type": "address"
        },
        {
          "internalType": "address",
          "name": "token",
          "type": "address"
        },
        {
          "internalType": "uint256",
          "name": "amount",
          "type": "uint256"
        },
        {
          "internalType": "uint256",
          "name": "createdAt",
          "type": "uint256"
        },
        {
          "internalType": "enum BitroveEscrow.Status",
          "name": "status",
          "type": "uint8"
        }
      ],
      "stateMutability": "view",
      "type": "function"
    },
    {
      "inputs": [
        {
          "internalType": "address",
          "name": "_bitrove",
          "type": "address"
        }
      ],
      "name": "updateBitrove",
      "outputs": [],
      "stateMutability": "nonpayable",
      "type": "function"
    },
    {
      "inputs": [
        {
          "internalType": "uint256",
          "name": "_feePercent",
          "type": "uint256"
        }
      ],
      "name": "updateFee",
      "outputs": [],
      "stateMutability": "nonpayable",
      "type": "function"
    }
  ],
  "bytecode": "0x6080604052348015600e575f5ffd5b50604051612cbc380380612cbc8339818101604052810190602e919060ab565b335f5f6101000a81548173ffffffffffffffffffffffffffffffffffffffff021916908373ffffffffffffffffffffffffffffffffffffffff160217905550806001819055505060d1565b5f5ffd5b5f819050919050565b608d81607d565b81146096575f5ffd5b50565b5f8151905060a5816086565b92915050565b5f6020828403121560bd5760bc6079565b5b5f60c8848285016099565b91505092915050565b612bde806100de5f395ff3fe608060405234801561000f575f5ffd5b50600436106100f2575f3560e01c80637fd6f15c116100955780639ead7222116100645780639ead72221461025b578063d3c7c2c71461028b578063d48bfca7146102a9578063e14f5b7d146102c5576100f2565b80637fd6f15c146101e75780638fcfc0bd146102055780639012c4a81461022157806395ebb5481461023d576100f2565b806343a0e3e6116100d157806343a0e3e6146101635780635d7996981461017f5780635fa7b5841461019b57806368c4ac26146101b7576100f2565b8062162420146100f65780632911842a1461012b5780633453969414610147575b5f5ffd5b610110600480360381019061010b9190611d65565b6102e1565b60405161012296959493929190611e5a565b60405180910390f35b61014560048036038101906101409190611f0d565b610382565b005b610161600480360381019061015c9190611d65565b610932565b005b61017d60048036038101906101789190611fa6565b610cbf565b005b61019960048036038101906101949190611d65565b611191565b005b6101b560048036038101906101b09190611fe4565b6114e3565b005b6101d160048036038101906101cc9190611fe4565b611688565b6040516101de919061201e565b60405180910390f35b6101ef6116a5565b6040516101fc9190612037565b60405180910390f35b61021f600480360381019061021a9190611fe4565b6116ab565b005b61023b60048036038101906102369190612050565b6117e9565b005b6102456118c6565b604051610252919061207b565b60405180910390f35b61027560048036038101906102709190612050565b6118ea565b604051610282919061207b565b60405180910390f35b610293611925565b6040516102a0919061214b565b60405180910390f35b6102c360048036038101906102be9190611fe4565b6119b0565b005b6102df60048036038101906102da9190611d65565b611bb7565b005b6004602052805f5260405f205f91509050805f015f9054906101000a900473ffffffffffffffffffffffffffffffffffffffff1690806001015f9054906101000a900473ffffffffffffffffffffffffffffffffffffffff1690806002015f9054906101000a900473ffffffffffffffffffffffffffffffffffffffff1690806003015490806004015490806005015f9054906101000a900460ff16905086565b60025f8373ffffffffffffffffffffffffffffffffffffffff1673ffffffffffffffffffffffffffffffffffffffff1681526020019081526020015f205f9054906101000a900460ff1661040b576040517f08c379a0000000000000000000000000000000000000000000000000000000008152600401610402906121c5565b60405180910390fd5b5f811161044d576040517f08c379a00000000000000000000000000000000000000000000000000000000081526004016104449061222d565b60405180910390fd5b5f73ffffffffffffffffffffffffffffffffffffffff1660045f8681526020019081526020015f205f015f9054906101000a900473ffffffffffffffffffffffffffffffffffffffff1673ffffffffffffffffffffffffffffffffffffffff16146104ed576040517f08c379a00000000000000000000000000000000000000000000000000000000081526004016104e490612295565b60405180910390fd5b5f73ffffffffffffffffffffffffffffffffffffffff168373ffffffffffffffffffffffffffffffffffffffff160361055b576040517f08c379a0000000000000000000000000000000000000000000000000000000008152600401610552906122fd565b60405180910390fd5b3373ffffffffffffffffffffffffffffffffffffffff168373ffffffffffffffffffffffffffffffffffffffff16036105c9576040517f08c379a00000000000000000000000000000000000000000000000000000000081526004016105c090612365565b60405180910390fd5b5f829050818173ffffffffffffffffffffffffffffffffffffffff1663dd62ed3e33306040518363ffffffff1660e01b8152600401610609929190612383565b602060405180830381865afa158015610624573d5f5f3e3d5ffd5b505050506040513d601f19601f8201168201806040525081019061064891906123be565b1015610689576040517f08c379a000000000000000000000000000000000000000000000000000000000815260040161068090612433565b60405180910390fd5b8073ffffffffffffffffffffffffffffffffffffffff166323b872dd3330856040518463ffffffff1660e01b81526004016106c693929190612451565b6020604051808303815f875af11580156106e2573d5f5f3e3d5ffd5b505050506040513d601f19601f82011682018060405250810190610706919061249a565b610745576040517f08c379a000000000000000000000000000000000000000000000000000000000815260040161073c9061250f565b60405180910390fd5b6040518060c001604052803373ffffffffffffffffffffffffffffffffffffffff1681526020018573ffffffffffffffffffffffffffffffffffffffff1681526020018473ffffffffffffffffffffffffffffffffffffffff1681526020018381526020014281526020015f60038111156107c3576107c2611de7565b5b81525060045f8781526020019081526020015f205f820151815f015f6101000a81548173ffffffffffffffffffffffffffffffffffffffff021916908373ffffffffffffffffffffffffffffffffffffffff1602179055506020820151816001015f6101000a81548173ffffffffffffffffffffffffffffffffffffffff021916908373ffffffffffffffffffffffffffffffffffffffff1602179055506040820151816002015f6101000a81548173ffffffffffffffffffffffffffffffffffffffff021916908373ffffffffffffffffffffffffffffffffffffffff160217905550606082015181600301556080820151816004015560a0820151816005015f6101000a81548160ff021916908360038111156108e5576108e4611de7565b5b0217905550905050847f8e39a107baee689f028481fbe8bae24bc284fa6e972c68bead7d6c4a4213deea33868686604051610923949392919061252d565b60405180910390a25050505050565b5f60045f8381526020019081526020015f209050805f015f9054906101000a900473ffffffffffffffffffffffffffffffffffffffff1673ffffffffffffffffffffffffffffffffffffffff163373ffffffffffffffffffffffffffffffffffffffff16146109d6576040517f08c379a00000000000000000000000000000000000000000000000000000000081526004016109cd906125ba565b60405180910390fd5b5f60038111156109e9576109e8611de7565b5b816005015f9054906101000a900460ff166003811115610a0c57610a0b611de7565b5b14610a4c576040517f08c379a0000000000000000000000000000000000000000000000000000000008152600401610a4390612622565b60405180910390fd5b6001816005015f6101000a81548160ff02191690836003811115610a7357610a72611de7565b5b02179055505f6127106001548360030154610a8e919061266d565b610a9891906126db565b90505f818360030154610aab919061270b565b90505f836002015f9054906101000a900473ffffffffffffffffffffffffffffffffffffffff1690508073ffffffffffffffffffffffffffffffffffffffff1663a9059cbb856001015f9054906101000a900473ffffffffffffffffffffffffffffffffffffffff16846040518363ffffffff1660e01b8152600401610b3292919061273e565b6020604051808303815f875af1158015610b4e573d5f5f3e3d5ffd5b505050506040513d601f19601f82011682018060405250810190610b72919061249a565b610bb1576040517f08c379a0000000000000000000000000000000000000000000000000000000008152600401610ba8906127af565b60405180910390fd5b8073ffffffffffffffffffffffffffffffffffffffff1663a9059cbb5f5f9054906101000a900473ffffffffffffffffffffffffffffffffffffffff16856040518363ffffffff1660e01b8152600401610c0c92919061273e565b6020604051808303815f875af1158015610c28573d5f5f3e3d5ffd5b505050506040513d601f19601f82011682018060405250810190610c4c919061249a565b610c8b576040517f08c379a0000000000000000000000000000000000000000000000000000000008152600401610c8290612817565b60405180910390fd5b847f500f670d20ac11d6bb620fd49f0cd27bccf5f5469658285b81e5b097b3b6e86160405160405180910390a25050505050565b5f5f9054906101000a900473ffffffffffffffffffffffffffffffffffffffff1673ffffffffffffffffffffffffffffffffffffffff163373ffffffffffffffffffffffffffffffffffffffff1614610d4d576040517f08c379a0000000000000000000000000000000000000000000000000000000008152600401610d449061287f565b60405180910390fd5b5f60045f8481526020019081526020015f20905060026003811115610d7557610d74611de7565b5b816005015f9054906101000a900460ff166003811115610d9857610d97611de7565b5b14610dd8576040517f08c379a0000000000000000000000000000000000000000000000000000000008152600401610dcf906128e7565b60405180910390fd5b5f816002015f9054906101000a900473ffffffffffffffffffffffffffffffffffffffff1690508215610f43576003826005015f6101000a81548160ff02191690836003811115610e2c57610e2b611de7565b5b02179055508073ffffffffffffffffffffffffffffffffffffffff1663a9059cbb835f015f9054906101000a900473ffffffffffffffffffffffffffffffffffffffff1684600301546040518363ffffffff1660e01b8152600401610e9292919061273e565b6020604051808303815f875af1158015610eae573d5f5f3e3d5ffd5b505050506040513d601f19601f82011682018060405250810190610ed2919061249a565b610f11576040517f08c379a0000000000000000000000000000000000000000000000000000000008152600401610f089061294f565b60405180910390fd5b837f22de6fbf2fb97a954cba7ffa910a216f9b375d13e206172a61bc8db06d0e1aac60405160405180910390a261118b565b6001826005015f6101000a81548160ff02191690836003811115610f6a57610f69611de7565b5b02179055505f6127106001548460030154610f85919061266d565b610f8f91906126db565b90505f818460030154610fa2919061270b565b90508273ffffffffffffffffffffffffffffffffffffffff1663a9059cbb856001015f9054906101000a900473ffffffffffffffffffffffffffffffffffffffff16836040518363ffffffff1660e01b815260040161100292919061273e565b6020604051808303815f875af115801561101e573d5f5f3e3d5ffd5b505050506040513d601f19601f82011682018060405250810190611042919061249a565b611081576040517f08c379a0000000000000000000000000000000000000000000000000000000008152600401611078906127af565b60405180910390fd5b8273ffffffffffffffffffffffffffffffffffffffff1663a9059cbb5f5f9054906101000a900473ffffffffffffffffffffffffffffffffffffffff16846040518363ffffffff1660e01b81526004016110dc92919061273e565b6020604051808303815f875af11580156110f8573d5f5f3e3d5ffd5b505050506040513d601f19601f8201168201806040525081019061111c919061249a565b61115b576040517f08c379a000000000000000000000000000000000000000000000000000000000815260040161115290612817565b60405180910390fd5b857f500f670d20ac11d6bb620fd49f0cd27bccf5f5469658285b81e5b097b3b6e86160405160405180910390a250505b50505050565b5f60045f8381526020019081526020015f2090505f60038111156111b8576111b7611de7565b5b816005015f9054906101000a900460ff1660038111156111db576111da611de7565b5b1461121b576040517f08c379a000000000000000000000000000000000000000000000000000000000815260040161121290612622565b60405180910390fd5b62093a80816004015461122e919061296d565b421015611270576040517f08c379a0000000000000000000000000000000000000000000000000000000008152600401611267906129ea565b60405180910390fd5b6001816005015f6101000a81548160ff0219169083600381111561129757611296611de7565b5b02179055505f61271060015483600301546112b2919061266d565b6112bc91906126db565b90505f8183600301546112cf919061270b565b90505f836002015f9054906101000a900473ffffffffffffffffffffffffffffffffffffffff1690508073ffffffffffffffffffffffffffffffffffffffff1663a9059cbb856001015f9054906101000a900473ffffffffffffffffffffffffffffffffffffffff16846040518363ffffffff1660e01b815260040161135692919061273e565b6020604051808303815f875af1158015611372573d5f5f3e3d5ffd5b505050506040513d601f19601f82011682018060405250810190611396919061249a565b6113d5576040517f08c379a00000000000000000000000000000000000000000000000000000000081526004016113cc906127af565b60405180910390fd5b8073ffffffffffffffffffffffffffffffffffffffff1663a9059cbb5f5f9054906101000a900473ffffffffffffffffffffffffffffffffffffffff16856040518363ffffffff1660e01b815260040161143092919061273e565b6020604051808303815f875af115801561144c573d5f5f3e3d5ffd5b505050506040513d601f19601f82011682018060405250810190611470919061249a565b6114af576040517f08c379a00000000000000000000000000000000000000000000000000000000081526004016114a690612817565b60405180910390fd5b847f500f670d20ac11d6bb620fd49f0cd27bccf5f5469658285b81e5b097b3b6e86160405160405180910390a25050505050565b5f5f9054906101000a900473ffffffffffffffffffffffffffffffffffffffff1673ffffffffffffffffffffffffffffffffffffffff163373ffffffffffffffffffffffffffffffffffffffff1614611571576040517f08c379a00000000000000000000000000000000000000000000000000000000081526004016115689061287f565b60405180910390fd5b60025f8273ffffffffffffffffffffffffffffffffffffffff1673ffffffffffffffffffffffffffffffffffffffff1681526020019081526020015f205f9054906101000a900460ff166115fa576040517f08c379a00000000000000000000000000000000000000000000000000000000081526004016115f190612a52565b60405180910390fd5b5f60025f8373ffffffffffffffffffffffffffffffffffffffff1673ffffffffffffffffffffffffffffffffffffffff1681526020019081526020015f205f6101000a81548160ff0219169083151502179055507f4c910b69fe65a61f7531b9c5042b2329ca7179c77290aa7e2eb3afa3c8511fd38160405161167d919061207b565b60405180910390a150565b6002602052805f5260405f205f915054906101000a900460ff1681565b60015481565b5f5f9054906101000a900473ffffffffffffffffffffffffffffffffffffffff1673ffffffffffffffffffffffffffffffffffffffff163373ffffffffffffffffffffffffffffffffffffffff1614611739576040517f08c379a00000000000000000000000000000000000000000000000000000000081526004016117309061287f565b60405180910390fd5b5f73ffffffffffffffffffffffffffffffffffffffff168173ffffffffffffffffffffffffffffffffffffffff16036117a7576040517f08c379a000000000000000000000000000000000000000000000000000000000815260040161179e90612aba565b60405180910390fd5b805f5f6101000a81548173ffffffffffffffffffffffffffffffffffffffff021916908373ffffffffffffffffffffffffffffffffffffffff16021790555050565b5f5f9054906101000a900473ffffffffffffffffffffffffffffffffffffffff1673ffffffffffffffffffffffffffffffffffffffff163373ffffffffffffffffffffffffffffffffffffffff1614611877576040517f08c379a000000000000000000000000000000000000000000000000000000000815260040161186e9061287f565b60405180910390fd5b6101f48111156118bc576040517f08c379a00000000000000000000000000000000000000000000000000000000081526004016118b390612b22565b60405180910390fd5b8060018190555050565b5f5f9054906101000a900473ffffffffffffffffffffffffffffffffffffffff1681565b600381815481106118f9575f80fd5b905f5260205f20015f915054906101000a900473ffffffffffffffffffffffffffffffffffffffff1681565b606060038054806020026020016040519081016040528092919081815260200182805480156119a657602002820191905f5260205f20905b815f9054906101000a900473ffffffffffffffffffffffffffffffffffffffff1673ffffffffffffffffffffffffffffffffffffffff168152602001906001019080831161195d575b5050505050905090565b5f5f9054906101000a900473ffffffffffffffffffffffffffffffffffffffff1673ffffffffffffffffffffffffffffffffffffffff163373ffffffffffffffffffffffffffffffffffffffff1614611a3e576040517f08c379a0000000000000000000000000000000000000000000000000000000008152600401611a359061287f565b60405180910390fd5b60025f8273ffffffffffffffffffffffffffffffffffffffff1673ffffffffffffffffffffffffffffffffffffffff1681526020019081526020015f205f9054906101000a900460ff1615611ac8576040517f08c379a0000000000000000000000000000000000000000000000000000000008152600401611abf90612b8a565b60405180910390fd5b600160025f8373ffffffffffffffffffffffffffffffffffffffff1673ffffffffffffffffffffffffffffffffffffffff1681526020019081526020015f205f6101000a81548160ff021916908315150217905550600381908060018154018082558091505060019003905f5260205f20015f9091909190916101000a81548173ffffffffffffffffffffffffffffffffffffffff021916908373ffffffffffffffffffffffffffffffffffffffff1602179055507f784c8f4dbf0ffedd6e72c76501c545a70f8b203b30a26ce542bf92ba87c248a481604051611bac919061207b565b60405180910390a150565b5f60045f8381526020019081526020015f209050805f015f9054906101000a900473ffffffffffffffffffffffffffffffffffffffff1673ffffffffffffffffffffffffffffffffffffffff163373ffffffffffffffffffffffffffffffffffffffff1614611c5b576040517f08c379a0000000000000000000000000000000000000000000000000000000008152600401611c52906125ba565b60405180910390fd5b5f6003811115611c6e57611c6d611de7565b5b816005015f9054906101000a900460ff166003811115611c9157611c90611de7565b5b14611cd1576040517f08c379a0000000000000000000000000000000000000000000000000000000008152600401611cc890612622565b60405180910390fd5b6002816005015f6101000a81548160ff02191690836003811115611cf857611cf7611de7565b5b0217905550817f2a8803b58181173a01675555619b96ec3b9192fdcf069aeea2ed913c3a05df0060405160405180910390a25050565b5f5ffd5b5f819050919050565b611d4481611d32565b8114611d4e575f5ffd5b50565b5f81359050611d5f81611d3b565b92915050565b5f60208284031215611d7a57611d79611d2e565b5b5f611d8784828501611d51565b91505092915050565b5f73ffffffffffffffffffffffffffffffffffffffff82169050919050565b5f611db982611d90565b9050919050565b611dc981611daf565b82525050565b5f819050919050565b611de181611dcf565b82525050565b7f4e487b71000000000000000000000000000000000000000000000000000000005f52602160045260245ffd5b60048110611e2557611e24611de7565b5b50565b5f819050611e3582611e14565b919050565b5f611e4482611e28565b9050919050565b611e5481611e3a565b82525050565b5f60c082019050611e6d5f830189611dc0565b611e7a6020830188611dc0565b611e876040830187611dc0565b611e946060830186611dd8565b611ea16080830185611dd8565b611eae60a0830184611e4b565b979650505050505050565b611ec281611daf565b8114611ecc575f5ffd5b50565b5f81359050611edd81611eb9565b92915050565b611eec81611dcf565b8114611ef6575f5ffd5b50565b5f81359050611f0781611ee3565b92915050565b5f5f5f5f60808587031215611f2557611f24611d2e565b5b5f611f3287828801611d51565b9450506020611f4387828801611ecf565b9350506040611f5487828801611ecf565b9250506060611f6587828801611ef9565b91505092959194509250565b5f8115159050919050565b611f8581611f71565b8114611f8f575f5ffd5b50565b5f81359050611fa081611f7c565b92915050565b5f5f60408385031215611fbc57611fbb611d2e565b5b5f611fc985828601611d51565b9250506020611fda85828601611f92565b9150509250929050565b5f60208284031215611ff957611ff8611d2e565b5b5f61200684828501611ecf565b91505092915050565b61201881611f71565b82525050565b5f6020820190506120315f83018461200f565b92915050565b5f60208201905061204a5f830184611dd8565b92915050565b5f6020828403121561206557612064611d2e565b5b5f61207284828501611ef9565b91505092915050565b5f60208201905061208e5f830184611dc0565b92915050565b5f81519050919050565b5f82825260208201905092915050565b5f819050602082019050919050565b6120c681611daf565b82525050565b5f6120d783836120bd565b60208301905092915050565b5f602082019050919050565b5f6120f982612094565b612103818561209e565b935061210e836120ae565b805f5b8381101561213e57815161212588826120cc565b9750612130836120e3565b925050600181019050612111565b5085935050505092915050565b5f6020820190508181035f83015261216381846120ef565b905092915050565b5f82825260208201905092915050565b7f546f6b656e206e6f7420737570706f72746564000000000000000000000000005f82015250565b5f6121af60138361216b565b91506121ba8261217b565b602082019050919050565b5f6020820190508181035f8301526121dc816121a3565b9050919050565b7f416d6f756e74206d757374206265203e203000000000000000000000000000005f82015250565b5f61221760128361216b565b9150612222826121e3565b602082019050919050565b5f6020820190508181035f8301526122448161220b565b9050919050565b7f547261646520616c7265616479206578697374730000000000000000000000005f82015250565b5f61227f60148361216b565b915061228a8261224b565b602082019050919050565b5f6020820190508181035f8301526122ac81612273565b9050919050565b7f496e76616c69642073656c6c65720000000000000000000000000000000000005f82015250565b5f6122e7600e8361216b565b91506122f2826122b3565b602082019050919050565b5f6020820190508181035f830152612314816122db565b9050919050565b7f42757965722063616e6e6f742062652073656c6c6572000000000000000000005f82015250565b5f61234f60168361216b565b915061235a8261231b565b602082019050919050565b5f6020820190508181035f83015261237c81612343565b9050919050565b5f6040820190506123965f830185611dc0565b6123a36020830184611dc0565b9392505050565b5f815190506123b881611ee3565b92915050565b5f602082840312156123d3576123d2611d2e565b5b5f6123e0848285016123aa565b91505092915050565b7f496e73756666696369656e7420616c6c6f77616e6365000000000000000000005f82015250565b5f61241d60168361216b565b9150612428826123e9565b602082019050919050565b5f6020820190508181035f83015261244a81612411565b9050919050565b5f6060820190506124645f830186611dc0565b6124716020830185611dc0565b61247e6040830184611dd8565b949350505050565b5f8151905061249481611f7c565b92915050565b5f602082840312156124af576124ae611d2e565b5b5f6124bc84828501612486565b91505092915050565b7f5472616e73666572206661696c656400000000000000000000000000000000005f82015250565b5f6124f9600f8361216b565b9150612504826124c5565b602082019050919050565b5f6020820190508181035f830152612526816124ed565b9050919050565b5f6080820190506125405f830187611dc0565b61254d6020830186611dc0565b61255a6040830185611dc0565b6125676060830184611dd8565b95945050505050565b7f4f6e6c79206275796572000000000000000000000000000000000000000000005f82015250565b5f6125a4600a8361216b565b91506125af82612570565b602082019050919050565b5f6020820190508181035f8301526125d181612598565b9050919050565b7f4e6f742066756e646564000000000000000000000000000000000000000000005f82015250565b5f61260c600a8361216b565b9150612617826125d8565b602082019050919050565b5f6020820190508181035f83015261263981612600565b9050919050565b7f4e487b71000000000000000000000000000000000000000000000000000000005f52601160045260245ffd5b5f61267782611dcf565b915061268283611dcf565b925082820261269081611dcf565b915082820484148315176126a7576126a6612640565b5b5092915050565b7f4e487b71000000000000000000000000000000000000000000000000000000005f52601260045260245ffd5b5f6126e582611dcf565b91506126f083611dcf565b925082612700576126ff6126ae565b5b828204905092915050565b5f61271582611dcf565b915061272083611dcf565b925082820390508181111561273857612737612640565b5b92915050565b5f6040820190506127515f830185611dc0565b61275e6020830184611dd8565b9392505050565b7f53656c6c6572207472616e73666572206661696c6564000000000000000000005f82015250565b5f61279960168361216b565b91506127a482612765565b602082019050919050565b5f6020820190508181035f8301526127c68161278d565b9050919050565b7f466565207472616e73666572206661696c6564000000000000000000000000005f82015250565b5f61280160138361216b565b915061280c826127cd565b602082019050919050565b5f6020820190508181035f83015261282e816127f5565b9050919050565b7f4f6e6c7920426974726f766500000000000000000000000000000000000000005f82015250565b5f612869600c8361216b565b915061287482612835565b602082019050919050565b5f6020820190508181035f8301526128968161285d565b9050919050565b7f4e6f7420646973707574656400000000000000000000000000000000000000005f82015250565b5f6128d1600c8361216b565b91506128dc8261289d565b602082019050919050565b5f6020820190508181035f8301526128fe816128c5565b9050919050565b7f526566756e64206661696c6564000000000000000000000000000000000000005f82015250565b5f612939600d8361216b565b915061294482612905565b602082019050919050565b5f6020820190508181035f8301526129668161292d565b9050919050565b5f61297782611dcf565b915061298283611dcf565b925082820190508082111561299a57612999612640565b5b92915050565b7f546f6f206561726c7900000000000000000000000000000000000000000000005f82015250565b5f6129d460098361216b565b91506129df826129a0565b602082019050919050565b5f6020820190508181035f830152612a01816129c8565b9050919050565b7f4e6f7420737570706f72746564000000000000000000000000000000000000005f82015250565b5f612a3c600d8361216b565b9150612a4782612a08565b602082019050919050565b5f6020820190508181035f830152612a6981612a30565b9050919050565b7f496e76616c6964206164647265737300000000000000000000000000000000005f82015250565b5f612aa4600f8361216b565b9150612aaf82612a70565b602082019050919050565b5f6020820190508181035f830152612ad181612a98565b9050919050565b7f4d617820352500000000000000000000000000000000000000000000000000005f82015250565b5f612b0c60068361216b565b9150612b1782612ad8565b602082019050919050565b5f6020820190508181035f830152612b3981612b00565b9050919050565b7f416c726561647920737570706f727465640000000000000000000000000000005f82015250565b5f612b7460118361216b565b9150612b7f82612b40565b602082019050919050565b5f6020820190508181035f830152612ba181612b68565b905091905056fea2646970667358221220333473a0973037d30b68b8b402464b5794a8e1f9916a53b8a63141ce3e5f373864736f6c634300081c0033",
  "linkReferences": {},
  "deployedLinkReferences": {},
  "immutableReferences": {},
  "inputSourceName": "project/contracts/BitroveEscrow.sol",
  "buildInfoId": "solc-0_8_28-4df2bae88dc67df46a2fa7abcfee58f3f0a9788c"
}